{
  "_format": "hh-sol-artifact-1",
  "contractName": "WildlifeDonation",
  "sourceName": "contracts/WildlifeDonation.sol",
  "abi": [
    {
      "inputs": [
        {
          "internalType": "address",
          "name": "_tokenAddress",
          "type": "address"
        }
      ],
      "stateMutability": "nonpayable",
      "type": "constructor"
    },
    {
      "anonymous": false,
      "inputs": [
        {
          "indexed": true,
          "internalType": "address",
          "name": "donor",
          "type": "address"
        },
        {
          "indexed": false,
          "internalType": "uint256",
          "name": "amount",
          "type": "uint256"
        }
      ],
      "name": "DonationReceived",
      "type": "event"
    },
    {
      "anonymous": false,
      "inputs": [
        {
          "indexed": false,
          "internalType": "uint256",
          "name": "newCount",
          "type": "uint256"
        }
      ],
      "name": "SpeciesProtectedUpdated",
      "type": "event"
    },
    {
      "inputs": [
        {
          "internalType": "uint256",
          "name": "_amount",
          "type": "uint256"
        }
      ],
      "name": "donate",
      "outputs": [],
      "stateMutability": "nonpayable",
      "type": "function"
    },
    {
      "inputs": [],
      "name": "owner",
      "outputs": [
        {
          "internalType": "address",
          "name": "",
          "type": "address"
        }
      ],
      "stateMutability": "view",
      "type": "function"
    },
    {
      "inputs": [],
      "name": "speciesProtected",
      "outputs": [
        {
          "internalType": "uint256",
          "name": "",
          "type": "uint256"
        }
      ],
      "stateMutability": "view",
      "type": "function"
    },
    {
      "inputs": [],
      "name": "token",
      "outputs": [
        {
          "internalType": "contract IERC20",
          "name": "",
          "type": "address"
        }
      ],
      "stateMutability": "view",
      "type": "function"
    },
    {
      "inputs": [],
      "name": "totalDonated",
      "outputs": [
        {
          "internalType": "uint256",
          "name": "",
          "type": "uint256"
        }
      ],
      "stateMutability": "view",
      "type": "function"
    },
    {
      "inputs": [
        {
          "internalType": "uint256",
          "name": "_newCount",
          "type": "uint256"
        }
      ],
      "name": "updateSpeciesProtected",
      "outputs": [],
      "stateMutability": "nonpayable",
      "type": "function"
    }
  ],
  "bytecode": "0x608060405234801561001057600080fd5b5060405161095f38038061095f8339818101604052810190610032919061011c565b806000806101000a81548173ffffffffffffffffffffffffffffffffffffffff021916908373ffffffffffffffffffffffffffffffffffffffff16021790555033600160006101000a81548173ffffffffffffffffffffffffffffffffffffffff021916908373ffffffffffffffffffffffffffffffffffffffff16021790555050610149565b600080fd5b600073ffffffffffffffffffffffffffffffffffffffff82169050919050565b60006100e9826100be565b9050919050565b6100f9816100de565b811461010457600080fd5b50565b600081519050610116816100f0565b92915050565b600060208284031215610132576101316100b9565b5b600061014084828501610107565b91505092915050565b610807806101586000396000f3fe608060405234801561001057600080fd5b50600436106100615760003560e01c8062b37044146100665780633462475c146100845780638da5cb5b146100a2578063ad0a2bb7146100c0578063f14faf6f146100dc578063fc0c546a146100f8575b600080fd5b61006e610116565b60405161007b91906103e2565b60405180910390f35b61008c61011c565b60405161009991906103e2565b60405180910390f35b6100aa610122565b6040516100b7919061043e565b60405180910390f35b6100da60048036038101906100d5919061048a565b610148565b005b6100f660048036038101906100f1919061048a565b610219565b005b6101006103a5565b60405161010d9190610516565b60405180910390f35b60025481565b60035481565b600160009054906101000a900473ffffffffffffffffffffffffffffffffffffffff1681565b600160009054906101000a900473ffffffffffffffffffffffffffffffffffffffff1673ffffffffffffffffffffffffffffffffffffffff163373ffffffffffffffffffffffffffffffffffffffff16146101d8576040517f08c379a00000000000000000000000000000000000000000000000000000000081526004016101cf906105b4565b60405180910390fd5b806003819055507f632105d5dd2bb75598f2955e243baf6891305144cefd57256e2793b2cd10589e8160405161020e91906103e2565b60405180910390a150565b6000811161025c576040517f08c379a000000000000000000000000000000000000000000000000000000000815260040161025390610646565b60405180910390fd5b60008054906101000a900473ffffffffffffffffffffffffffffffffffffffff1673ffffffffffffffffffffffffffffffffffffffff166323b872dd3330846040518463ffffffff1660e01b81526004016102b993929190610666565b6020604051808303816000875af11580156102d8573d6000803e3d6000fd5b505050506040513d601f19601f820116820180604052508101906102fc91906106d5565b61033b576040517f08c379a00000000000000000000000000000000000000000000000000000000081526004016103329061074e565b60405180910390fd5b806002600082825461034d919061079d565b925050819055503373ffffffffffffffffffffffffffffffffffffffff167f264f630d9efa0d07053a31163641d9fcc0adafc9d9e76f1c37c2ce3a558d2c528260405161039a91906103e2565b60405180910390a250565b60008054906101000a900473ffffffffffffffffffffffffffffffffffffffff1681565b6000819050919050565b6103dc816103c9565b82525050565b60006020820190506103f760008301846103d3565b92915050565b600073ffffffffffffffffffffffffffffffffffffffff82169050919050565b6000610428826103fd565b9050919050565b6104388161041d565b82525050565b6000602082019050610453600083018461042f565b92915050565b600080fd5b610467816103c9565b811461047257600080fd5b50565b6000813590506104848161045e565b92915050565b6000602082840312156104a05761049f610459565b5b60006104ae84828501610475565b91505092915050565b6000819050919050565b60006104dc6104d76104d2846103fd565b6104b7565b6103fd565b9050919050565b60006104ee826104c1565b9050919050565b6000610500826104e3565b9050919050565b610510816104f5565b82525050565b600060208201905061052b6000830184610507565b92915050565b600082825260208201905092915050565b7f4f6e6c7920746865206f776e65722063616e207570646174652073706563696560008201527f7320636f756e7400000000000000000000000000000000000000000000000000602082015250565b600061059e602783610531565b91506105a982610542565b604082019050919050565b600060208201905081810360008301526105cd81610591565b9050919050565b7f446f6e6174696f6e20616d6f756e74206d75737420626520677265617465722060008201527f7468616e207a65726f0000000000000000000000000000000000000000000000602082015250565b6000610630602983610531565b915061063b826105d4565b604082019050919050565b6000602082019050818103600083015261065f81610623565b9050919050565b600060608201905061067b600083018661042f565b610688602083018561042f565b61069560408301846103d3565b949350505050565b60008115159050919050565b6106b28161069d565b81146106bd57600080fd5b50565b6000815190506106cf816106a9565b92915050565b6000602082840312156106eb576106ea610459565b5b60006106f9848285016106c0565b91505092915050565b7f5472616e73666572206661696c65640000000000000000000000000000000000600082015250565b6000610738600f83610531565b915061074382610702565b602082019050919050565b600060208201905081810360008301526107678161072b565b9050919050565b7f4e487b7100000000000000000000000000000000000000000000000000000000600052601160045260246000fd5b60006107a8826103c9565b91506107b3836103c9565b92508282019050808211156107cb576107ca61076e565b5b9291505056fea26469706673582212201368772507aefca36b1f94c94e3a2442b565bea67e52b498dbe3530c31ca6d8664736f6c63430008140033",
  "linkReferences": {},
  "deployedLinkReferences": {}
}