{
  "_format": "hh-sol-artifact-1",
  "contractName": "ConservationFund",
  "sourceName": "contracts/ConservationFund.sol",
  "abi": [
    {
      "inputs": [
        {
          "internalType": "address",
          "name": "_taxRecipient",
          "type": "address"
        },
        {
          "internalType": "uint256",
          "name": "_taxPercentage",
          "type": "uint256"
        }
      ],
      "stateMutability": "nonpayable",
      "type": "constructor"
    },
    {
      "anonymous": false,
      "inputs": [
        {
          "indexed": true,
          "internalType": "address",
          "name": "donor",
          "type": "address"
        },
        {
          "indexed": false,
          "internalType": "uint256",
          "name": "amount",
          "type": "uint256"
        },
        {
          "indexed": false,
          "internalType": "uint256",
          "name": "taxedAmount",
          "type": "uint256"
        }
      ],
      "name": "DonationReceived",
      "type": "event"
    },
    {
      "anonymous": false,
      "inputs": [
        {
          "indexed": true,
          "internalType": "address",
          "name": "recipient",
          "type": "address"
        },
        {
          "indexed": false,
          "internalType": "uint256",
          "name": "amount",
          "type": "uint256"
        }
      ],
      "name": "TaxCollected",
      "type": "event"
    },
    {
      "stateMutability": "payable",
      "type": "fallback"
    },
    {
      "inputs": [],
      "name": "donate",
      "outputs": [],
      "stateMutability": "payable",
      "type": "function"
    },
    {
      "inputs": [],
      "name": "owner",
      "outputs": [
        {
          "internalType": "address",
          "name": "",
          "type": "address"
        }
      ],
      "stateMutability": "view",
      "type": "function"
    },
    {
      "inputs": [],
      "name": "taxPercentage",
      "outputs": [
        {
          "internalType": "uint256",
          "name": "",
          "type": "uint256"
        }
      ],
      "stateMutability": "view",
      "type": "function"
    },
    {
      "inputs": [],
      "name": "taxRecipient",
      "outputs": [
        {
          "internalType": "address",
          "name": "",
          "type": "address"
        }
      ],
      "stateMutability": "view",
      "type": "function"
    },
    {
      "inputs": [],
      "name": "withdrawFunds",
      "outputs": [],
      "stateMutability": "nonpayable",
      "type": "function"
    },
    {
      "stateMutability": "payable",
      "type": "receive"
    }
  ],
  "bytecode": "0x60c06040523480156200001157600080fd5b5060405162000d4f38038062000d4f83398181016040528101906200003791906200020c565b600073ffffffffffffffffffffffffffffffffffffffff168273ffffffffffffffffffffffffffffffffffffffff1603620000a9576040517f08c379a0000000000000000000000000000000000000000000000000000000008152600401620000a090620002da565b60405180910390fd5b6064811115620000f0576040517f08c379a0000000000000000000000000000000000000000000000000000000008152600401620000e7906200034c565b60405180910390fd5b3373ffffffffffffffffffffffffffffffffffffffff1660808173ffffffffffffffffffffffffffffffffffffffff16815250508173ffffffffffffffffffffffffffffffffffffffff1660a08173ffffffffffffffffffffffffffffffffffffffff16815250508060008190555050506200036e565b600080fd5b600073ffffffffffffffffffffffffffffffffffffffff82169050919050565b600062000199826200016c565b9050919050565b620001ab816200018c565b8114620001b757600080fd5b50565b600081519050620001cb81620001a0565b92915050565b6000819050919050565b620001e681620001d1565b8114620001f257600080fd5b50565b6000815190506200020681620001db565b92915050565b6000806040838503121562000226576200022562000167565b5b60006200023685828601620001ba565b92505060206200024985828601620001f5565b9150509250929050565b600082825260208201905092915050565b7f54617820726563697069656e742063616e6e6f74206265207a65726f2061646460008201527f7265737300000000000000000000000000000000000000000000000000000000602082015250565b6000620002c260248362000253565b9150620002cf8262000264565b604082019050919050565b60006020820190508181036000830152620002f581620002b3565b9050919050565b7f5461782070657263656e746167652063616e6e6f742065786365656420313030600082015250565b60006200033460208362000253565b91506200034182620002fc565b602082019050919050565b60006020820190508181036000830152620003678162000325565b9050919050565b60805160a0516109a0620003af600039600081816102a101528181610362015261042c01526000818160fb015281816101d301526102c501526109a06000f3fe60806040526004361061004e5760003560e01c806324600fc314610057578063737ea06e1461006e5780638da5cb5b14610099578063ae7b6d16146100c4578063ed88c68e146100ef57610055565b3661005557005b005b34801561006357600080fd5b5061006c6100f9565b005b34801561007a57600080fd5b5061008361029f565b604051610090919061052e565b60405180910390f35b3480156100a557600080fd5b506100ae6102c3565b6040516100bb919061052e565b60405180910390f35b3480156100d057600080fd5b506100d96102e7565b6040516100e69190610562565b60405180910390f35b6100f76102ed565b005b7f000000000000000000000000000000000000000000000000000000000000000073ffffffffffffffffffffffffffffffffffffffff163373ffffffffffffffffffffffffffffffffffffffff1614610187576040517f08c379a000000000000000000000000000000000000000000000000000000000815260040161017e90610600565b60405180910390fd5b6000479050600081116101cf576040517f08c379a00000000000000000000000000000000000000000000000000000000081526004016101c69061066c565b60405180910390fd5b60007f000000000000000000000000000000000000000000000000000000000000000073ffffffffffffffffffffffffffffffffffffffff1682604051610215906106bd565b60006040518083038185875af1925050503d8060008114610252576040519150601f19603f3d011682016040523d82523d6000602084013e610257565b606091505b505090508061029b576040517f08c379a00000000000000000000000000000000000000000000000000000000081526004016102929061071e565b60405180910390fd5b5050565b7f000000000000000000000000000000000000000000000000000000000000000081565b7f000000000000000000000000000000000000000000000000000000000000000081565b60005481565b60003411610330576040517f08c379a0000000000000000000000000000000000000000000000000000000008152600401610327906107b0565b60405180910390fd5b600060646000543461034291906107ff565b61034c9190610870565b90506000813461035c91906108a1565b905060007f000000000000000000000000000000000000000000000000000000000000000073ffffffffffffffffffffffffffffffffffffffff16836040516103a4906106bd565b60006040518083038185875af1925050503d80600081146103e1576040519150601f19603f3d011682016040523d82523d6000602084013e6103e6565b606091505b505090508061042a576040517f08c379a000000000000000000000000000000000000000000000000000000000815260040161042190610921565b60405180910390fd5b7f000000000000000000000000000000000000000000000000000000000000000073ffffffffffffffffffffffffffffffffffffffff167f7f1b726f82f7a14636a7a5932448f1bce683188520ba3150fd8423989353ebf2846040516104909190610562565b60405180910390a23373ffffffffffffffffffffffffffffffffffffffff167f4b0304ab2f313234b1cea012339c8f8c3bf2c8bb357d81a579cfdb35d2e3d03034856040516104e0929190610941565b60405180910390a2505050565b600073ffffffffffffffffffffffffffffffffffffffff82169050919050565b6000610518826104ed565b9050919050565b6105288161050d565b82525050565b6000602082019050610543600083018461051f565b92915050565b6000819050919050565b61055c81610549565b82525050565b60006020820190506105776000830184610553565b92915050565b600082825260208201905092915050565b7f4f6e6c79206f776e65722063616e2063616c6c20746869732066756e6374696f60008201527f6e00000000000000000000000000000000000000000000000000000000000000602082015250565b60006105ea60218361057d565b91506105f58261058e565b604082019050919050565b60006020820190508181036000830152610619816105dd565b9050919050565b7f4e6f2066756e647320746f207769746864726177000000000000000000000000600082015250565b600061065660148361057d565b915061066182610620565b602082019050919050565b6000602082019050818103600083015261068581610649565b9050919050565b600081905092915050565b50565b60006106a760008361068c565b91506106b282610697565b600082019050919050565b60006106c88261069a565b9150819050919050565b7f4661696c656420746f2077697468647261772066756e64730000000000000000600082015250565b600061070860188361057d565b9150610713826106d2565b602082019050919050565b60006020820190508181036000830152610737816106fb565b9050919050565b7f446f6e6174696f6e20616d6f756e74206d75737420626520677265617465722060008201527f7468616e207a65726f0000000000000000000000000000000000000000000000602082015250565b600061079a60298361057d565b91506107a58261073e565b604082019050919050565b600060208201905081810360008301526107c98161078d565b9050919050565b7f4e487b7100000000000000000000000000000000000000000000000000000000600052601160045260246000fd5b600061080a82610549565b915061081583610549565b925082820261082381610549565b9150828204841483151761083a576108396107d0565b5b5092915050565b7f4e487b7100000000000000000000000000000000000000000000000000000000600052601260045260246000fd5b600061087b82610549565b915061088683610549565b92508261089657610895610841565b5b828204905092915050565b60006108ac82610549565b91506108b783610549565b92508282039050818111156108cf576108ce6107d0565b5b92915050565b7f4661696c656420746f2073656e64207461780000000000000000000000000000600082015250565b600061090b60128361057d565b9150610916826108d5565b602082019050919050565b6000602082019050818103600083015261093a816108fe565b9050919050565b60006040820190506109566000830185610553565b6109636020830184610553565b939250505056fea26469706673582212206dc38d6dc91a9fe9b7bebf6123f8c404318ed70cebd53114e6c05c71f6626dde64736f6c63430008140033",
  "linkReferences": {},
  "deployedLinkReferences": {}
}