{
  "_format": "hh-sol-artifact-1",
  "contractName": "CommunityIncentives",
  "sourceName": "contracts/CommunityIncentives.sol",
  "abi": [
    {
      "inputs": [],
      "stateMutability": "nonpayable",
      "type": "constructor"
    },
    {
      "inputs": [
        {
          "internalType": "address",
          "name": "owner",
          "type": "address"
        }
      ],
      "name": "OwnableInvalidOwner",
      "type": "error"
    },
    {
      "inputs": [
        {
          "internalType": "address",
          "name": "account",
          "type": "address"
        }
      ],
      "name": "OwnableUnauthorizedAccount",
      "type": "error"
    },
    {
      "anonymous": false,
      "inputs": [
        {
          "indexed": true,
          "internalType": "address",
          "name": "reporter",
          "type": "address"
        },
        {
          "indexed": false,
          "internalType": "uint256",
          "name": "pointsAwarded",
          "type": "uint256"
        }
      ],
      "name": "CaseReported",
      "type": "event"
    },
    {
      "anonymous": false,
      "inputs": [
        {
          "indexed": true,
          "internalType": "address",
          "name": "previousOwner",
          "type": "address"
        },
        {
          "indexed": true,
          "internalType": "address",
          "name": "newOwner",
          "type": "address"
        }
      ],
      "name": "OwnershipTransferred",
      "type": "event"
    },
    {
      "anonymous": false,
      "inputs": [
        {
          "indexed": true,
          "internalType": "address",
          "name": "user",
          "type": "address"
        },
        {
          "indexed": false,
          "internalType": "uint256",
          "name": "pointsUsed",
          "type": "uint256"
        },
        {
          "indexed": false,
          "internalType": "string",
          "name": "itemDescription",
          "type": "string"
        }
      ],
      "name": "PointsRedeemed",
      "type": "event"
    },
    {
      "inputs": [],
      "name": "POINTS_PER_REPORT",
      "outputs": [
        {
          "internalType": "uint256",
          "name": "",
          "type": "uint256"
        }
      ],
      "stateMutability": "view",
      "type": "function"
    },
    {
      "inputs": [
        {
          "internalType": "address",
          "name": "_user",
          "type": "address"
        },
        {
          "internalType": "uint256",
          "name": "_amount",
          "type": "uint256"
        },
        {
          "internalType": "bool",
          "name": "_add",
          "type": "bool"
        }
      ],
      "name": "adjustPoints",
      "outputs": [],
      "stateMutability": "nonpayable",
      "type": "function"
    },
    {
      "inputs": [],
      "name": "owner",
      "outputs": [
        {
          "internalType": "address",
          "name": "",
          "type": "address"
        }
      ],
      "stateMutability": "view",
      "type": "function"
    },
    {
      "inputs": [
        {
          "internalType": "address",
          "name": "",
          "type": "address"
        }
      ],
      "name": "points",
      "outputs": [
        {
          "internalType": "uint256",
          "name": "",
          "type": "uint256"
        }
      ],
      "stateMutability": "view",
      "type": "function"
    },
    {
      "inputs": [
        {
          "internalType": "uint256",
          "name": "_pointsToRedeem",
          "type": "uint256"
        },
        {
          "internalType": "string",
          "name": "_itemDescription",
          "type": "string"
        }
      ],
      "name": "redeemPoints",
      "outputs": [],
      "stateMutability": "nonpayable",
      "type": "function"
    },
    {
      "inputs": [],
      "name": "renounceOwnership",
      "outputs": [],
      "stateMutability": "nonpayable",
      "type": "function"
    },
    {
      "inputs": [],
      "name": "reportConservationCase",
      "outputs": [],
      "stateMutability": "nonpayable",
      "type": "function"
    },
    {
      "inputs": [
        {
          "internalType": "address",
          "name": "newOwner",
          "type": "address"
        }
      ],
      "name": "transferOwnership",
      "outputs": [],
      "stateMutability": "nonpayable",
      "type": "function"
    }
  ],
  "bytecode": "0x608060405234801561001057600080fd5b5033600073ffffffffffffffffffffffffffffffffffffffff168173ffffffffffffffffffffffffffffffffffffffff16036100845760006040517f1e4fbdf700000000000000000000000000000000000000000000000000000000815260040161007b919061019e565b60405180910390fd5b6100938161009960201b60201c565b506101b9565b60008060009054906101000a900473ffffffffffffffffffffffffffffffffffffffff169050816000806101000a81548173ffffffffffffffffffffffffffffffffffffffff021916908373ffffffffffffffffffffffffffffffffffffffff1602179055508173ffffffffffffffffffffffffffffffffffffffff168173ffffffffffffffffffffffffffffffffffffffff167f8be0079c531659141344cd1fd0a4f28419497f9722a3daafe3b4186f6b6457e060405160405180910390a35050565b600073ffffffffffffffffffffffffffffffffffffffff82169050919050565b60006101888261015d565b9050919050565b6101988161017d565b82525050565b60006020820190506101b3600083018461018f565b92915050565b610c51806101c86000396000f3fe608060405234801561001057600080fd5b50600436106100885760003560e01c8063715018a61161005b578063715018a6146101015780637c1867251461010b5780638da5cb5b14610127578063f2fde38b1461014557610088565b8063185267fc1461008d57806327559ff5146100975780632c581521146100b5578063358b8166146100d1575b600080fd5b610095610161565b005b61009f610209565b6040516100ac919061070e565b60405180910390f35b6100cf60048036038101906100ca91906107f5565b61020e565b005b6100eb60048036038101906100e69190610848565b610355565b6040516100f8919061070e565b60405180910390f35b61010961036d565b005b610125600480360381019061012091906108da565b610381565b005b61012f6104f3565b60405161013c9190610949565b60405180910390f35b61015f600480360381019061015a9190610848565b61051c565b005b6064600160003373ffffffffffffffffffffffffffffffffffffffff1673ffffffffffffffffffffffffffffffffffffffff16815260200190815260200160002060008282546101b19190610993565b925050819055503373ffffffffffffffffffffffffffffffffffffffff167ffd0abc4f3d42414152c2b51f73d2034632a703a684dfaea6aa08b608fafea36060646040516101ff919061070e565b60405180910390a2565b606481565b6102166105a2565b80156102775781600160008573ffffffffffffffffffffffffffffffffffffffff1673ffffffffffffffffffffffffffffffffffffffff168152602001908152602001600020600082825461026b9190610993565b92505081905550610350565b81600160008573ffffffffffffffffffffffffffffffffffffffff1673ffffffffffffffffffffffffffffffffffffffff1681526020019081526020016000205410156102f9576040517f08c379a00000000000000000000000000000000000000000000000000000000081526004016102f090610a4a565b60405180910390fd5b81600160008573ffffffffffffffffffffffffffffffffffffffff1673ffffffffffffffffffffffffffffffffffffffff16815260200190815260200160002060008282546103489190610a6a565b925050819055505b505050565b60016020528060005260406000206000915090505481565b6103756105a2565b61037f6000610629565b565b82600160003373ffffffffffffffffffffffffffffffffffffffff1673ffffffffffffffffffffffffffffffffffffffff168152602001908152602001600020541015610403576040517f08c379a00000000000000000000000000000000000000000000000000000000081526004016103fa90610aea565b60405180910390fd5b60008311610446576040517f08c379a000000000000000000000000000000000000000000000000000000000815260040161043d90610b7c565b60405180910390fd5b82600160003373ffffffffffffffffffffffffffffffffffffffff1673ffffffffffffffffffffffffffffffffffffffff16815260200190815260200160002060008282546104959190610a6a565b925050819055503373ffffffffffffffffffffffffffffffffffffffff167fda49bb5bf412718988a26709b7c8c5385b0af3ae2570f06613f372c2d401faf28484846040516104e693929190610be9565b60405180910390a2505050565b60008060009054906101000a900473ffffffffffffffffffffffffffffffffffffffff16905090565b6105246105a2565b600073ffffffffffffffffffffffffffffffffffffffff168173ffffffffffffffffffffffffffffffffffffffff16036105965760006040517f1e4fbdf700000000000000000000000000000000000000000000000000000000815260040161058d9190610949565b60405180910390fd5b61059f81610629565b50565b6105aa6106ed565b73ffffffffffffffffffffffffffffffffffffffff166105c86104f3565b73ffffffffffffffffffffffffffffffffffffffff1614610627576105eb6106ed565b6040517f118cdaa700000000000000000000000000000000000000000000000000000000815260040161061e9190610949565b60405180910390fd5b565b60008060009054906101000a900473ffffffffffffffffffffffffffffffffffffffff169050816000806101000a81548173ffffffffffffffffffffffffffffffffffffffff021916908373ffffffffffffffffffffffffffffffffffffffff1602179055508173ffffffffffffffffffffffffffffffffffffffff168173ffffffffffffffffffffffffffffffffffffffff167f8be0079c531659141344cd1fd0a4f28419497f9722a3daafe3b4186f6b6457e060405160405180910390a35050565b600033905090565b6000819050919050565b610708816106f5565b82525050565b600060208201905061072360008301846106ff565b92915050565b600080fd5b600080fd5b600073ffffffffffffffffffffffffffffffffffffffff82169050919050565b600061075e82610733565b9050919050565b61076e81610753565b811461077957600080fd5b50565b60008135905061078b81610765565b92915050565b61079a816106f5565b81146107a557600080fd5b50565b6000813590506107b781610791565b92915050565b60008115159050919050565b6107d2816107bd565b81146107dd57600080fd5b50565b6000813590506107ef816107c9565b92915050565b60008060006060848603121561080e5761080d610729565b5b600061081c8682870161077c565b935050602061082d868287016107a8565b925050604061083e868287016107e0565b9150509250925092565b60006020828403121561085e5761085d610729565b5b600061086c8482850161077c565b91505092915050565b600080fd5b600080fd5b600080fd5b60008083601f84011261089a57610899610875565b5b8235905067ffffffffffffffff8111156108b7576108b661087a565b5b6020830191508360018202830111156108d3576108d261087f565b5b9250929050565b6000806000604084860312156108f3576108f2610729565b5b6000610901868287016107a8565b935050602084013567ffffffffffffffff8111156109225761092161072e565b5b61092e86828701610884565b92509250509250925092565b61094381610753565b82525050565b600060208201905061095e600083018461093a565b92915050565b7f4e487b7100000000000000000000000000000000000000000000000000000000600052601160045260246000fd5b600061099e826106f5565b91506109a9836106f5565b92508282019050808211156109c1576109c0610964565b5b92915050565b600082825260208201905092915050565b7f43616e6e6f74207375627472616374206d6f726520706f696e7473207468616e60008201527f2075736572206861730000000000000000000000000000000000000000000000602082015250565b6000610a346029836109c7565b9150610a3f826109d8565b604082019050919050565b60006020820190508181036000830152610a6381610a27565b9050919050565b6000610a75826106f5565b9150610a80836106f5565b9250828203905081811115610a9857610a97610964565b5b92915050565b7f4e6f7420656e6f75676820706f696e747320746f2072656465656d0000000000600082015250565b6000610ad4601b836109c7565b9150610adf82610a9e565b602082019050919050565b60006020820190508181036000830152610b0381610ac7565b9050919050565b7f506f696e747320746f2072656465656d206d757374206265206772656174657260008201527f207468616e207a65726f00000000000000000000000000000000000000000000602082015250565b6000610b66602a836109c7565b9150610b7182610b0a565b604082019050919050565b60006020820190508181036000830152610b9581610b59565b9050919050565b82818337600083830152505050565b6000601f19601f8301169050919050565b6000610bc883856109c7565b9350610bd5838584610b9c565b610bde83610bab565b840190509392505050565b6000604082019050610bfe60008301866106ff565b8181036020830152610c11818486610bbc565b905094935050505056fea2646970667358221220960083fa4465ddd3596a561838ece6f05b47a0d32596c8c8d469577d7e9c158a64736f6c63430008140033",
  "linkReferences": {},
  "deployedLinkReferences": {}
}